:030000000204FEF9
:0C04FE00787FE4F6D8FD758120020545EA
:100388004144442046494E4745525052494E540034
:10039800534156454400534156494E47204641492A
:1003A8004C00434F4C4C454354494E472046414925
:1003B8004C00414C4C2044454C4554454400444570
:1003C8004C455445204641494C00202020205745A3
:1003D8004C434F4D4500494E4954494154494E47B5
:1003E8002E2E2E005345542046494E474552505212
:1003F800494E5400434F4D4D554E49434154494E83
:10040800473E3E3E0053455454494E4720535543BA
:10041800434553530053455454494E472046414998
:100428004C555245004144442046494E47455200E8
:100438004E554C4C2046494E4745520044454C4584
:10044800544520414C4C00554E415554484F524953
:100458005A45440020202020204C4F434B4544005F
:100468001001FFFFFFFF0100071300000000001B41
:100478001001FFFFFFFF0100071200000000001A33
:100488000C01FFFFFFFF01000301000500000D0143
:10049800FFFFFFFF01000402010008000D01FFFF3C
:1004A800FFFF01000402020009001101FFFFFFFF26
:1004B8000100080401000000650073000C01FFFF43
:1004C800FFFF01000305000900000F01FFFFFFFF08
:1004D80001000606020000000F001001FFFFFFFFE9
:1004E8000100070C0000000100150C01FFFFFFFFD1
:0604F8000100030D0011DC
:1007B6006040000000000000000000000000000093
:1007C6000000000000000000000000000000000023
:1007D6000000000000000000000000000000000013
:1007E6000000000000000000000000000000000003
:1007F60000000000011600021B0000011D00021788
:10080600000001150002190000C101C103C104C1A5
:0108160000E1
:100A0400E4FDFCC3ED9FEC9E5015E4FBFA0BBB0028
:0F0A1400010AEB64784A70F50DBD00010C80E417
:010A230022B0
:100AFD0075A0FFC2B5D2B4D2B300E5A05480FFC239
:010B0D00B334
:010B0E0022C4
:0909C1007FE87E03120A667F0143
:1009CA00AE07120AFDEF70FAC2B5C2B4C2B3000094
:0909DA008EA0D2B30000C2B322CA
:100AB900AE07120AFDEF70FAD2B5C2B4C2B3000094
:090AC9008EA0D2B30000C2B322DA
:1008CE00EDFB7A0064017006EF2480FC8022EB645D
:1008DE00024A7006EF2490FC8016EB64034A700601
:1008EE00EF2488FC800AEB64044A7004EF2498FC21
:0508FE00AF040209CA6D
:0A0B1F00A9031208CEAF01020AB9C3
:0A0897007A0379FC7BFF7D02E4FF89
:1008A1008B088A09890A1208CEAB08AA09A90A127B
:1008B1000818FF6017120AB97401250AF50AE43510
:0D08C10009F5097F017E00120A0480DD2286
:02060500A90743
:10060700ED5401FF7E00640170057509808007EFD6
:100617004E70037509907F341209CA7F361209CAD2
:10062700E4FCECC39410748094805043E5092CFFDC
:100637001209CAEDD3940274809480E9400513240B
:10064700888004C3132480FF1209CAE95401640196
:100657007004FF120AB9E4FAEAC39B500F3005048D
:100667007FFF8002E4FF120AB90A80EC0C80B37F97
:04067700300209CA7A
:100A4400E4F508C3E508940574809480500FC2054A
:0D0A54007B10AD08E4FF120605050880E6E2
:010A61002272
:100A9D007F301209CA7F301209CA7F0C1209CA7F32
:0C0AAD00011209CA7F061209CA020A449D
:100A2400E4FDFCC3ED9FEC9E5015E4FBFA0BBB0008
:0F0A3400010AEB64784A70F50DBD00010C80E4F7
:010A43002290
:0A0B2900C2998F993099FDC29922FC
:0B01F000E02FF07B017A0079007D46D3
:0801FB008B0B8A0C890D8D0E9F
:10020300E4F50FF510F511FEF512F513F514C2051B
:10021300C206C2077FEF120B297F01120B29AB0B1A
:10022300AA0CA90D120818FE750F02E50FC39E5004
:1002330017AB0BAA0CA90D850F8275830012083129
:10024300FF120B29050F80E3D205E4F51DF50FD34B
:10025300E50F943F7480948050117400250FF5824C
:10026300E43400F583E4F0050F80E4200503020382
:1002730085C205C206C207E4F50FF51BF51C2098DD
:100283000302036A859910C298AF107E00EF64EFF2
:10029300701020060DF50F900000E510F0751301A6
:1002A30080DCAD137C00ED6401702AEF64014E60C5
:1002B3000DE4F513C205C206C207F50F80C075131E
:1002C30002050F7400250FF582E43400F583E51071
:1002D300F0D20680A9ED64024C600302036A200693
:1002E3000302036A050F7400250FF582E43400F559
:1002F30083E510F0AF0F7E00C3EF94067480948003
:1003030040107400250FF582E43400F583E02514D2
:10031300F514EF64084E7008900008E0F512D20758
:10032300300744E5122408FFE433FEEF650F700144
:10033300EE703474FF250FF582E434FFF583E0FF9C
:10034300C3E5149FFF7400250FF582E43400F583A1
:10035300E0FEC3EF9EF514EE65146004C20580024F
:10036300D205E4F5138018D3E51C950EE51B940024
:10037300500DE50F943F74809480500302028185F1
:040383000F1DA205A3
:010387002253
:10067B008F0A7BFF7A0479887D591201FB5058E56C
:10068B001D640B7052900009E0704CC2A3E50A6424
:10069B0001701F7BFF7A0479967D3C1201FB500F92
:1006AB00E51D640B7009900009E070037F01227F48
:1006BB000022E50A640270227BFF7A0479A47D3C58
:1006CB001201FB500FE51D640B7009900009E070DF
:0D06DB00037F01227F00227F00227F00228A
:10090300E4F5087F0112067BEF640170227BFF7A16
:100913000479B27D3C1201FB5012E51D640F700C8B
:10092300900009E0700690000BE0FF227FFF227F1A
:0109330000C3
:0109340022A0
:10093500E4FEEEC39410748094805015EE9004D2BA
:1009450093FD74002EF582E43400F583EDF00E80FE
:10095500E190000CEFF090000E1201F0500122C35F
:01096500226F
:10096600E4FEEEC39410748094805015EE9004E279
:1009760093FD74002EF582E43400F583EDF00E80CD
:10098600E190000BEFF090000F1201F0500122C32E
:01099600223E
:100B0F007BFF7A0479F27D321201FB500122C3225E
:10058A00E4F508F5097F0112067B8F08EF64016024
:10059A0013EF70F10509C3E509942874809480402B
:1005AA00E47F0022E4F5097FF47E01120A247F0227
:1005BA0012067B8F08EF6401702B7BFF7A0479C4E3
:1005CA007D281201FB5011E51D640B700B90000988
:1005DA00E07005FE7F0180047E007F00EF4E70020E
:1005EA00FF227F0122E508640170C30509C3E509FA
:0A05FA0094197480948040B67F00CD
:0106040022D3
:10000E00759850758921758BFD758DFDC2ABD28E9D
:0D001E00D2A9758A97758CBDD28CD2AF2205
:03000B00020AEAFC
:100AEA00C0E0758A97758CBD051CE51C7002051B54
:030AFA00D0E03217
:100AD20075CB3C75CAB085CBCD85CACCE4F5C8F5DB
:080AE200C9D2AFD2ADC2CA2295
:03002B00020A8046
:100A8000C0E0C2CF0518E5187002051764C8451705
:0D0A90007008F517F518D2B6C2CAD0E032D2
:040A62007FF47E019E
:100A6600EF1FAA0670011E4A600FE4FDEDC3945005
:090A76007480948050EA0D80F3B5
:010A7F002254
:1009E30020901D7F0A7E00120A66209013D20220F7
:1009F300900E7FC47E09120A662090F3D20080EF26
:010A030022D0
:070997007F011209CA7F0372
:02099E00AC07A4
:1009A000E4FBEBC39C5019C2B7C2807F287E0012C3
:1009B0000A66D2B7D2807F287E00120A660B80E2D8
:0109C0002214
:1006E8007F011209CA7BFF7A0379887D01E4FF1232
:1006F80008A1120A6212058AEF64017035051AE52D
:100708001A70020519FF12093550137BFF7A037915
:10071800987D027F031208A17FD07E0780217A038B
:10072800799E12089B1209C1E51A151A7014151939
:1007380080107BFF7A0379AA12089D7FE87E031256
:0807480009C5C203E4F5152206
:10085E007F011209CA120B0F7BFF501B7A0379BA64
:10086E007D017F011208A17FD07E071209C5751583
:10087E0002E4F519F51A227A0379C67D017F011279
:09088E0008A11209C1E4F51522CC
:100750001209038F167E00C3EF94017480948040C9
:100760000AD3EF9464748094804005EFF44E704295
:10077000C3EF9401EE64809480402FD3EF9464EE35
:10078000648094805024C2B6E4F517F518D2CA7F6D
:10079000011209CA7BFF7A0379D27D01E4FF1208B6
:1007A000A17FD07E071209C580057F0312099E1222
:0607B0000A62E4F51522C7
:10002E00120A9D12000E120AD2751502E515640110
:10003E0070063003031206E8E515640370063004FB
:10004E000312085EE5156402707B7BFF7A0379DE8E
:10005E007D017F011208A17BFF7A0379EC12089DC6
:10006E00120A6212058AEF640170457BFF7A0379EA
:10007E00FC7D03FF1208A1051AE51A70020519FF8F
:10008E0012093550197F011209CA7BFF7A04790DC6
:10009E007D01E4FF1208A17FD07E070201CBE4F5BB
:1000AE0019F51A7F011209CA7BFF7A04791D800B9C
:1000BE007F011209CA7BFF7A0379AA7D017F0112A3
:1000CE0008A102003AE5156402700302003A120913
:1000DE00E330026F20006CC2027515017F01120918
:1000EE00CA7BFF7A04792D7D017F011208A11208C7
:1000FE00971209038F167E00C3EF940174809480CB
:10010E00400AD3EF9464748094804005EFF44E70EF
:10011E00E0C3EF9401EE648094804010D3EF9464BA
:10012E00EE648094805005D20302003A1209977B48
:10013E00FF7A0479387D017F011208A17FE87E03E2
:10014E000201CB2002030201D430007AC202C200A7
:10015E007F011209CA7BFF7A0479447D017F011267
:10016E0008A11208977515031209038F167E00C396
:10017E00EF940174809480400AD3EF946474809459
:10018E00804005EFF44E70DDC3EF9401EE64809471
:10019E00804016D3EF9464EE64809480500BEF642D
:1001AE00014E70C1D20402003A1209977BFF7A0405
:1001BE00794F7D017F011208A17FE87E031209C5E8
:1001CE00E4F51502003AE515600302003A7BFF7A6A
:1001DE0004795C7D01FF1208A112089712075002E4
:0201EE00003AD5
:10050A0002002EE493A3F8E493A34003F68001F2D9
:10051A0008DFF48029E493A3F85407240CC8C333F2
:10052A00C4540F4420C8834004F456800146F6DFC1
:10053A00E4800B01020408102040809007B6E47E94
:10054A00019360BCA3FF543F30E509541FFEE493B6
:10055A00A360010ECF54C025E060A840B8E493A37D
:10056A00FAE493A3F8E493A3C8C582C8CAC583CAA8
:10057A00F0A3C8C582C8CAC583CADFE9DEE780BE60
:0108170000E0
:10081800BB010689828A83E0225002E722BBFE02DE
:09082800E32289828A83E4932211
:10083100BB010CE58229F582E5833AF583E022507C
:1008410006E92582F8E622BBFE06E92582F8E222C6
:0D085100E58229F582E5833AF583E49322E0
:00000001FF
